:040986004C5055007C
:100925007D017C00EFFBD3ED9BEC940050167B0121
:100935007A000BBB00010ABA04F8BBEAF50DBD004D
:04094500010C80E041
:01094900228B
:0E095E008FB0C2A0D2A17F0A120925C2A12229
:0E096C008FB0D2A0D2A17F0A120925C2A1220B
:10094A007F3812095E7F0F12095E7F0112095E7FEE
:04095A008502095EAB
:1008F60078087C007D007BFF7A0979867E007F047C
:100906001208D090000012094AAF8274082FF8E648
:0E091600FF600B12096CA37F0A12092580EB0B
:0109240022B0
:0300000002097A78
:0C097A00787FE4F6D8FD75810B0208F6CA
:10080000E709F608DFFA8046E709F208DFFA803EDA
:1008100088828C83E709F0A3DFFA8032E309F608C7
:10082000DFFA8078E309F208DFFA807088828C832F
:10083000E309F0A3DFFA806489828A83E0A3F608E3
:10084000DFFA805889828A83E0A3F208DFFA804CBD
:1008500080D280FA80C680D4806980F28033801094
:1008600080A680EA809A80A880DA80E280CA8033FD
:1008700089828A83ECFAE493A3C8C582C8CCC58375
:10088000CCF0A3C8C582C8CCC583CCDFE9DEE78045
:100890000D89828A83E493A3F608DFF9ECFAA9F0C4
:1008A000EDFB2289828A83ECFAE0A3C8C582C8CC1A
:1008B000C583CCF0A3C8C582C8CCC583CCDFEADE33
:1008C000E880DB89828A83E493A3F208DFF980CC95
:1008D00088F0EF60010E4E60C388F0ED2402B4048E
:1008E0000050B9F582EB2402B4040050AF23234535
:0608F00082239008507302
:00000001FF
