:0C0BEE00EF4E6007EF1F70F81E80F5222C
:100BB800120B5A7FD0120C167F07120C16E4FF1284
:050BC8000C16020B9A5F
:060C1600120B10020BCDD1
:030C2100020A3292
:100AC6008F0E8D0F8B10120B5A7FD0120C16E4FF6F
:100AD600120C16AF10120C16AF0F120C16AF0E1228
:050AE6000C16020B9A42
:100AEB008F0E8D0F8B10120B5A7FD0120C167F04AA
:100AFB00120C16AF0E120C16AF0F120C16AF101203
:050B0B000C16020B9A1C
:100885008B0E8A0F8910120B5A7FD0120C16E4FFBB
:10089500120C16120B9A120B5A7FD1120C16120C4F
:1008A50021AB14AA15A916EF120AB4120C06120CE4
:1008B50021AB11AA12A913EF120AB4120C06120CDD
:1008C50021AB0EAA0FA910EF120AB4120C0E020BDF
:0108D5009A88
:1008D6008B0E8A0F8910120B5A7FD0120C167F04CA
:1008E600120C16120B9A120B5A7FD1120C16120CFE
:1008F60021AB0EAA0FA910EF120AB4120C06120CA5
:1009060021AB11AA12A913EF120AB4120C06120C8B
:1009160021AB14AA15A916EF120AB4120C0E020B7B
:010926009A36
:100BCD007F327E00120BEED2807F327E00120BEE52
:030BDD00C28022B1
:100B5A00C280D2817F327E00120BEED2807F327E3B
:100B6A0000120BEEC2817F327E00120BEEC280228F
:100B9A00C2807F327E00120BEEC2817F327E00124B
:0E0BAA000BEED2807F327E00120BEED2812243
:020B10008F173D
:100B1200E4F518C3E5189408748094805012E51720
:100B2200339281120BCDE51725E0F517051880E306
:020B3200D2816E
:010B3400229E
:100A3200E4F518D281F517C3E51794087480948001
:100A420050227F327E00120BEED2807F327E001265
:100A52000BEEE51825E0F518A281E4334218C280B6
:060A6200051780D3AF1858
:010A6800226B
:080C0600C281120BCDD2812244
:080C0E00D281120BCDD280222D
:100B7A007F887E13120BEE7F021209F77F28120973
:100B8A00F77F0C1209F77F011209F77F800209F734
:1009F7008F0EE50E54F0F590C290C291D2927F010E
:100A07007E00120BEEC2927F017E00120BEEE50E06
:100A1700C454F0F590C290C291D2927F017E001229
:0B0A27000BEEC2927F017E00020BEE7E
:0509B700540F2430FF85
:1009BC008F11E51154F0F590D290C291D2927F0133
:1009CC007E00120BEEC2927F017E00120BEEE5113F
:1009DC00C454F0F590D290C291D2927F017E001255
:0B09EC000BEEC2927F017E00020BEEBA
:050C1C007FC00209F792
:100A6900EFFB3395E0FAC3EB9402EA64809480507B
:100A790020EFC4333354C04480FFEDFB3395E0FAD3
:100A8900C3EB9410EA648094805003ED2FFF1209A0
:010A9900F765
:010A9A002239
:100B35008B0E8A0F8910AB0EAA0FA910120A9B60A3
:100B4500130510E5107002050F14F9120A9BFF1228
:050B550009BC80E22252
:100927008F0E8D0F8B107804E50EA2E713D8FB12FC
:1009370009B7E50E1209B77F3A1209BC7804E50F2B
:10094700A2E713D8FB1209B7E50F1209B77F3A12CE
:1009570009BC7804E510A2E713D8FB1209B7E51024
:08096700540F2430FF0209BC0B
:10096F008F0E8D0F8B107804E50EA2E713D8FB12B4
:10097F0009B7E50E1209B77F2F1209BC7804E50FEE
:10098F00A2E713D8FB1209B7E50F1209B77F2F1291
:10099F0009BC7804E510A2E713D8FB1209B7E510DC
:0809AF00540F2430FF0209BCC3
:0E0BE00054696D653A2000446174653A200046
:10080000120B7A120BB87B327D607F23120AC67BF3
:10081000227D027F04120AEB7BFF7A0B79E0120B38
:1008200035120C1C7BFF7A0B79E7120B3575110022
:100830007512007513097514007515007516087B7F
:10084000007A00790A1208857D06E4FF120A69AB76
:1008500008AD09AF0A12092775110075120075134A
:100860000C75140075150075160D7B007A00790B58
:100870001208D67D067F01120A69AB0DAD0CAF0BD5
:0508800012096F80A8C1
:03000000020BFAF6
:0C0BFA00787FE4F6D8FD75811802080031
:100A9B00BB010689828A83E0225002E722BBFE0259
:090AAB00E32289828A83E493228C
:100AB400BB010689828A83F0225002F722BBFE0121
:020AC400F3221B
:00000001FF
