:100B860054656D70657261747572652069733A207B
:100ABA0011084143206973204F4E20202020202016
:100ACA002020001119436F6F6C6572206973204FE3
:100ADA004E2020202000114C46616E206973204F61
:100AEA004E2020202020202000112A57696E74658C
:100AFA00727320617265206E65617221113B526FBB
:0F0B0A006F6D20697320456D7074792120200074
:060B4500D2B17F047E0026
:100B4B007D017C00C3ED9FEC9E50167B017A000B60
:100B5B00BB00010ABA04F8BBFBF50DBD00010C800C
:010B6B00E3A6
:010B6C002266
:0A0BA3008FA0C2B0120B45C2B122B0
:030B96002430FF09
:0A0B99008FA0D2B0120B45C2B122AA
:100B6D007F38120BA37F01120BA37F06120BA37FFD
:090B7D000C120BA37F81020BA3F3
:060B1A008B748A758976D8
:100B2000E4F577F578AB74AA75A976857882857730
:100B3000831208F6FF600D120B990578E57870E5D1
:040B4000057780E1D4
:010B4400228E
:100923008E728F737F80120BA3C3E5739432E572CB
:100933009400401130800ED2B2C2B3C2B47B007AAD
:10094300007908806AC3E5739428E5729400401B1C
:10095300E5739432E5729400501130800ED2B3C225
:10096300B2C2B47B007A0079198044C3E57394283A
:10097300E5729400501CC3E573941EE57294004025
:100983001130800ED2B4C2B2C2B37B007A00794C6C
:10099300801D30800EC2B2C2B3C2B47B007A00792C
:1009A3002A800CC2B2C2B3C2B47B007A00793B1274
:0309B3000B1A22FA
:100A4200785D7C007D007BFF7A0B79867E007F10CB
:100A52001208D0E4F56DF56E120B6DC2B6D2B62057
:100A6200B7FDC2B585906FAF6F7E001209237FC6B6
:100A7200120BA3E56F75F00A8485F070E56F75F0CF
:100A82000A84F56F75F00A8485F071E56F75F00AD6
:100A920084F56F75F00A84A9F0E9120B96E57112DC
:100AA2000B96E5702430FF120B997FDF120B997FB2
:080AB20043120B99D2B580A399
:030000000209B63C
:0C09B600787FE4F6D8FD7581780209FD19
:10080000E709F608DFFA8046E709F208DFFA803EDA
:1008100088828C83E709F0A3DFFA8032E309F608C7
:10082000DFFA8078E309F208DFFA807088828C832F
:10083000E309F0A3DFFA806489828A83E0A3F608E3
:10084000DFFA805889828A83E0A3F208DFFA804CBD
:1008500080D280FA80C680D4806980F28033801094
:1008600080A680EA809A80A880DA80E280CA8033FD
:1008700089828A83ECFAE493A3C8C582C8CCC58375
:10088000CCF0A3C8C582C8CCC583CCDFE9DEE78045
:100890000D89828A83E493A3F608DFF9ECFAA9F0C4
:1008A000EDFB2289828A83ECFAE0A3C8C582C8CC1A
:1008B000C583CCF0A3C8C582C8CCC583CCDFEADE33
:1008C000E880DB89828A83E493A3F208DFF980CC95
:1008D00088F0EF60010E4E60C388F0ED2402B4048E
:1008E0000050B9F582EB2402B4040050AF23234535
:0608F00082239008507302
:1008F600BB010CE58229F582E5833AF583E02250B7
:1009060006E92582F8E622BBFE06E92582F8E22200
:0D091600E58229F582E5833AF583E493221A
:1009C200020A42E493A3F8E493A34003F68001F2FF
:1009D20008DFF48029E493A3F85407240CC8C33336
:1009E200C4540F4420C8834004F456800146F6DF05
:1009F200E4800B0102040810204080900ABAE47ED1
:100A0200019360BCA3FF543F30E509541FFEE493F9
:100A1200A360010ECF54C025E060A840B8E493A3C0
:100A2200FAE493A3F8E493A3C8C582C8CAC583CAEB
:100A3200F0A3C8C582C8CAC583CADFE9DEE780BEA3
:010B190000DB
:00000001FF
