:1009B8004F626A65637420666F756E64004E6F20BF
:0709C8004F626A65637400D1
:100993007D017C00EFFBD3ED9BEC940050167B01B3
:1009A3007A000BBB00010ABA04F8BBEAF50DBD00DF
:0409B300010C80E0D3
:0109B700221D
:0E09DE008FB0C2A0D2A17F0A120993C2A1223B
:06095F008B1F8A20892194
:10096500E4F522F523AB1FAA20A921852382852240
:10097500831208F66017F5B0D2A0D2A17F0A12093A
:0D09850093C2A10523E52370DC052280D874
:010992002242
:0F09CF007F381209DE7F0F1209DE7F010209DE79
:1009230078087C007D007BFF7A0979B87E007F0D13
:100933001208D078157C007D007BFF7A0979C57E8B
:10094300007F0A1208D01209CF7B0030A2067A007A
:0B095300790880047A00791512095F12
:01095E002276
:030000000209EC06
:0C09EC00787FE4F6D8FD75812302092312
:10080000E709F608DFFA8046E709F208DFFA803EDA
:1008100088828C83E709F0A3DFFA8032E309F608C7
:10082000DFFA8078E309F208DFFA807088828C832F
:10083000E309F0A3DFFA806489828A83E0A3F608E3
:10084000DFFA805889828A83E0A3F208DFFA804CBD
:1008500080D280FA80C680D4806980F28033801094
:1008600080A680EA809A80A880DA80E280CA8033FD
:1008700089828A83ECFAE493A3C8C582C8CCC58375
:10088000CCF0A3C8C582C8CCC583CCDFE9DEE78045
:100890000D89828A83E493A3F608DFF9ECFAA9F0C4
:1008A000EDFB2289828A83ECFAE0A3C8C582C8CC1A
:1008B000C583CCF0A3C8C582C8CCC583CCDFEADE33
:1008C000E880DB89828A83E493A3F208DFF980CC95
:1008D00088F0EF60010E4E60C388F0ED2402B4048E
:1008E0000050B9F582EB2402B4040050AF23234535
:0608F00082239008507302
:1008F600BB010CE58229F582E5833AF583E02250B7
:1009060006E92582F8E622BBFE06E92582F8E22200
:0D091600E58229F582E5833AF583E493221A
:00000001FF
