:1008F7000E1C536D6F6B6520446574656374656486
:10090700103A416C636F686F6C204465746563745B
:100917006564102A434E4720476173204465746518
:100927006374656414084E61747572616C20476165
:0A0937007320446574656374656401
:06099A00D2B17F047E00D3
:1009A0007D017C00C3ED9FEC9E50167B017A000B0D
:1009B000BB00010ABA04F8BBFBF50DBD00010C80B9
:0109C000E353
:0109C1002213
:0A09DB008FA0C2B012099AC2B12227
:0A09E5008FA0D2B012099AC2B1220D
:1009C2007F381209DB7F011209DB7F061209DB7F08
:0909D2000C1209DB7F810209DB34
:06096F008B4A8A4B894C03
:10097500E4F54DF54EAB4AAA4BA94C854E82854D03
:1009850083120942FF600D1209E5054EE54E70E53B
:04099500054D80E1AB
:01099900223B
:10088C001209C23090131209C2D2B4C2B5C2B6C298
:10089C00B77B007A00791C80403091131209C2C2D8
:1008AC00B4D2B5C2B6C2B77B007A00793A802A308E
:1008BC0092131209C2C2B4C2B5D2B6C2B77B007AC7
:1008CC0000792A80143093161209C2C2B4C2B5C280
:1008DC00B6D2B77B007A00790812096F80A512098D
:0B08EC00C2C2B4C2B5C2B6C2B7809849
:03000000020800F3
:0C080000787FE4F6D8FD75814E020847B1
:10094200BB010CE58229F582E5833AF583E022506A
:1009520006E92582F8E622BBFE06E92582F8E222B4
:0D096200E58229F582E5833AF583E49322CE
:10080C0002088CE493A3F8E493A34003F68001F26E
:10081C0008DFF48029E493A3F85407240CC8C333ED
:10082C00C4540F4420C8834004F456800146F6DFBC
:10083C00E4800B01020408102040809008F7E47E4D
:10084C00019360BCA3FF543F30E509541FFEE493B1
:10085C00A360010ECF54C025E060A840B8E493A378
:10086C00FAE493A3F8E493A3C8C582C8CAC583CAA3
:10087C00F0A3C8C582C8CAC583CADFE9DEE780BE5B
:0109410000B5
:00000001FF
