:10099400436F72726563742050494E00446F6F72E6
:1009A400204F70656E656400496E636F7272656393
:1009B400742050494E0054727920416761696E2059
:1009C4004C6174657200456E74657220446F6F7279
:0509D4002050494E0017
:070A8600050C39383835007A
:060A3100D2B17F047E003B
:100A37007D017C00C3ED9FEC9E50167B017A000B75
:100A4700BB00010ABA04F8BBFBF50DBD00010C8021
:010A5700E3BB
:010A5800227B
:0A0A72008FA0C2B0120A31C2B122F7
:0A0A7C008FA0D2B0120A31C2B122DD
:100A59007F38120A727F01120A727F06120A727FA8
:090A69000C120A727F80020A726D
:060A06008B138A14891510
:100A0C00E4F516F517AB13AA14A9158517828516EC
:100A1C00831209D9FF600D120A7C0517E51770E5E2
:040A2C00051680E14A
:010A300022A3
:10088C00C290D291D292D2932094037F31222095A0
:10089C00037F32222096037F3322D290C291D292D0
:1008AC00D2932094037F34222095037F3522209607
:1008BC00037F3622D290D291C292D2932094037F9E
:1008CC0037222095037F38222096037F3922D2903D
:1008DC00D291D292C2932094037F2A222095037F37
:1008EC0030222096037F23227F147E00120A378049
:0108FC008F6C
:1008FD00120A59E508650C7028E509650D7022E5A9
:10090D000AB50E1DE50BB50F187BFF7A0979941208
:10091D000A06D2977FC0120A727BFF7A0979A080EE
:10092D00147BFF7A0979AC120A067FC0120A727B1A
:10093D00FF7A0979BA120A067FE87E03120A37C2D6
:02094D009722EF
:10094F00E4F511F512C297120A597BFF7A0979CA99
:10095F00120A067FC0120A72740C2512F8E6602084
:10096F0012088C74082512F8A6077F2A120A7C7FBA
:10097F00327E00120A370512E51270DC051180D89D
:03098F001208FD4E
:0209920080BB28
:03000000020800F3
:0C080000787FE4F6D8FD758117020847E8
:1009D900BB010CE58229F582E5833AF583E02250D3
:1009E90006E92582F8E622BBFE06E92582F8E2221D
:0D09F900E58229F582E5833AF583E4932237
:10080C0002094FE493A3F8E493A34003F68001F2AA
:10081C0008DFF48029E493A3F85407240CC8C333ED
:10082C00C4540F4420C8834004F456800146F6DFBC
:10083C00E4800B0102040810204080900A86E47EBC
:10084C00019360BCA3FF543F30E509541FFEE493B1
:10085C00A360010ECF54C025E060A840B8E493A378
:10086C00FAE493A3F8E493A3C8C582C8CAC583CAA3
:10087C00F0A3C8C582C8CAC583CADFE9DEE780BE5B
:010A8D000068
:00000001FF
