:06098C007118413031300A
:10094C007408250FF8E6F5A07F647E001209607527
:04095C00A0FF7F3247
:10096000E4FDFCD3ED9FEC9E5015E4FBFA0BBB00BD
:0F097000010ABA04F8BBFCF50DBD00010C80E4D0
:01097F002255
:1008F60078087C007D007BFF7A09798C7E007F0674
:100906001208D0D290E4F5A030901DE4F50EF50F54
:10091600D3E50F9402E50E940050ED12094C050F35
:10092600E50F70EC050E80E8750E00750F03D3E534
:100936000F9405E50E940050CF12094C050FE50FF4
:0609460070EC050E80E8D4
:0300000002098072
:0C098000787FE4F6D8FD75810F0208F6C0
:10080000E709F608DFFA8046E709F208DFFA803EDA
:1008100088828C83E709F0A3DFFA8032E309F608C7
:10082000DFFA8078E309F208DFFA807088828C832F
:10083000E309F0A3DFFA806489828A83E0A3F608E3
:10084000DFFA805889828A83E0A3F208DFFA804CBD
:1008500080D280FA80C680D4806980F28033801094
:1008600080A680EA809A80A880DA80E280CA8033FD
:1008700089828A83ECFAE493A3C8C582C8CCC58375
:10088000CCF0A3C8C582C8CCC583CCDFE9DEE78045
:100890000D89828A83E493A3F608DFF9ECFAA9F0C4
:1008A000EDFB2289828A83ECFAE0A3C8C582C8CC1A
:1008B000C583CCF0A3C8C582C8CCC583CCDFEADE33
:1008C000E880DB89828A83E493A3F208DFF980CC95
:1008D00088F0EF60010E4E60C388F0ED2402B4048E
:1008E0000050B9F582EB2402B4040050AF23234535
:0608F00082239008507302
:00000001FF
